{
  "contractName": "Lottery",
  "abi": [
    {
      "inputs": [],
      "stateMutability": "nonpayable",
      "type": "constructor"
    },
    {
      "inputs": [
        {
          "internalType": "uint256",
          "name": "",
          "type": "uint256"
        }
      ],
      "name": "players",
      "outputs": [
        {
          "internalType": "address payable",
          "name": "",
          "type": "address"
        }
      ],
      "stateMutability": "view",
      "type": "function",
      "constant": true
    },
    {
      "inputs": [],
      "name": "winner",
      "outputs": [
        {
          "internalType": "address payable",
          "name": "",
          "type": "address"
        }
      ],
      "stateMutability": "view",
      "type": "function",
      "constant": true
    },
    {
      "stateMutability": "payable",
      "type": "receive",
      "payable": true
    },
    {
      "inputs": [],
      "name": "allPlayers",
      "outputs": [
        {
          "internalType": "address payable[]",
          "name": "",
          "type": "address[]"
        }
      ],
      "stateMutability": "view",
      "type": "function",
      "constant": true
    },
    {
      "inputs": [],
      "name": "getBalance",
      "outputs": [
        {
          "internalType": "uint256",
          "name": "",
          "type": "uint256"
        }
      ],
      "stateMutability": "view",
      "type": "function",
      "constant": true
    },
    {
      "inputs": [],
      "name": "pickWinner",
      "outputs": [],
      "stateMutability": "nonpayable",
      "type": "function"
    }
  ],
  "bytecode": "0x608060405234801561001057600080fd5b50336000806101000a81548173ffffffffffffffffffffffffffffffffffffffff021916908373ffffffffffffffffffffffffffffffffffffffff160217905550610af8806100606000396000f3fe60806040526004361061004e5760003560e01c806312065fe0146101075780635d495aea14610132578063b0ec809414610149578063dfbf53ae14610174578063f71d96cb1461019f57610102565b3661010257670de0b6b3a7640000341461009d576040517f08c379a0000000000000000000000000000000000000000000000000000000008152600401610094906106e0565b60405180910390fd5b6001339080600181540180825580915050600190039060005260206000200160009091909190916101000a81548173ffffffffffffffffffffffffffffffffffffffff021916908373ffffffffffffffffffffffffffffffffffffffff160217905550005b600080fd5b34801561011357600080fd5b5061011c6101dc565b6040516101299190610719565b60405180910390f35b34801561013e57600080fd5b50610147610273565b005b34801561015557600080fd5b5061015e6104e9565b60405161016b9190610824565b60405180910390f35b34801561018057600080fd5b50610189610577565b6040516101969190610855565b60405180910390f35b3480156101ab57600080fd5b506101c660048036038101906101c191906108a1565b61059d565b6040516101d39190610855565b60405180910390f35b60008060009054906101000a900473ffffffffffffffffffffffffffffffffffffffff1673ffffffffffffffffffffffffffffffffffffffff163373ffffffffffffffffffffffffffffffffffffffff161461026d576040517f08c379a00000000000000000000000000000000000000000000000000000000081526004016102649061091a565b60405180910390fd5b47905090565b60008054906101000a900473ffffffffffffffffffffffffffffffffffffffff1673ffffffffffffffffffffffffffffffffffffffff163373ffffffffffffffffffffffffffffffffffffffff1614610301576040517f08c379a00000000000000000000000000000000000000000000000000000000081526004016102f89061091a565b60405180910390fd5b6003600180549050101561034a576040517f08c379a000000000000000000000000000000000000000000000000000000000815260040161034190610986565b60405180910390fd5b60004442600180549050604051602001610366939291906109c7565b6040516020818303038152906040528051906020012060001c90506000600180549050826103949190610a33565b9050600181815481106103aa576103a9610a64565b5b9060005260206000200160009054906101000a900473ffffffffffffffffffffffffffffffffffffffff16600260006101000a81548173ffffffffffffffffffffffffffffffffffffffff021916908373ffffffffffffffffffffffffffffffffffffffff160217905550600260009054906101000a900473ffffffffffffffffffffffffffffffffffffffff1673ffffffffffffffffffffffffffffffffffffffff166108fc6104596101dc565b9081150290604051600060405180830381858888f19350505050158015610484573d6000803e3d6000fd5b50600067ffffffffffffffff8111156104a05761049f610a93565b5b6040519080825280602002602001820160405280156104ce5781602001602082028036833780820191505090505b50600190805190602001906104e49291906105dc565b505050565b6060600180548060200260200160405190810160405280929190818152602001828054801561056d57602002820191906000526020600020905b8160009054906101000a900473ffffffffffffffffffffffffffffffffffffffff1673ffffffffffffffffffffffffffffffffffffffff1681526020019060010190808311610523575b5050505050905090565b600260009054906101000a900473ffffffffffffffffffffffffffffffffffffffff1681565b600181815481106105ad57600080fd5b906000526020600020016000915054906101000a900473ffffffffffffffffffffffffffffffffffffffff1681565b828054828255906000526020600020908101928215610655579160200282015b828111156106545782518260006101000a81548173ffffffffffffffffffffffffffffffffffffffff021916908373ffffffffffffffffffffffffffffffffffffffff160217905550916020019190600101906105fc565b5b5090506106629190610666565b5090565b5b8082111561067f576000816000905550600101610667565b5090565b600082825260208201905092915050565b7f506c656173652070617920302e31206574686572206f6e6c7900000000000000600082015250565b60006106ca601983610683565b91506106d582610694565b602082019050919050565b600060208201905081810360008301526106f9816106bd565b9050919050565b6000819050919050565b61071381610700565b82525050565b600060208201905061072e600083018461070a565b92915050565b600081519050919050565b600082825260208201905092915050565b6000819050602082019050919050565b600073ffffffffffffffffffffffffffffffffffffffff82169050919050565b600061078b82610760565b9050919050565b61079b81610780565b82525050565b60006107ad8383610792565b60208301905092915050565b6000602082019050919050565b60006107d182610734565b6107db818561073f565b93506107e683610750565b8060005b838110156108175781516107fe88826107a1565b9750610809836107b9565b9250506001810190506107ea565b5085935050505092915050565b6000602082019050818103600083015261083e81846107c6565b905092915050565b61084f81610780565b82525050565b600060208201905061086a6000830184610846565b92915050565b600080fd5b61087e81610700565b811461088957600080fd5b50565b60008135905061089b81610875565b92915050565b6000602082840312156108b7576108b6610870565b5b60006108c58482850161088c565b91505092915050565b7f596f7520617265206e6f7420746865206d616e61676572000000000000000000600082015250565b6000610904601783610683565b915061090f826108ce565b602082019050919050565b60006020820190508181036000830152610933816108f7565b9050919050565b7f506c617965727320617265206c657373207468616e2033000000000000000000600082015250565b6000610970601783610683565b915061097b8261093a565b602082019050919050565b6000602082019050818103600083015261099f81610963565b9050919050565b6000819050919050565b6109c16109bc82610700565b6109a6565b82525050565b60006109d382866109b0565b6020820191506109e382856109b0565b6020820191506109f382846109b0565b602082019150819050949350505050565b7f4e487b7100000000000000000000000000000000000000000000000000000000600052601260045260246000fd5b6000610a3e82610700565b9150610a4983610700565b925082610a5957610a58610a04565b5b828206905092915050565b7f4e487b7100000000000000000000000000000000000000000000000000000000600052603260045260246000fd5b7f4e487b7100000000000000000000000000000000000000000000000000000000600052604160045260246000fdfea2646970667358221220090ea60c975f11ce98ab885fb8b88f9eb9e4380c83473e03135d6bb04f4dde0764736f6c634300080b0033",
  "immutableReferences": {},
  "source": "// SPDX-License-Identifier: MIT\r\n\r\npragma solidity >= 0.5.0 < 0.9.0;\r\n\r\ncontract Lottery{\r\n    address manager;\r\n    address payable[] public players;\r\n    address payable public winner;\r\n\r\n    // The project deployer will become the manager which controls the Lottery System\r\n    constructor(){\r\n        manager = msg.sender; // Global Variable\r\n    }\r\n\r\n    // Whenever we will recieve the Payment from a person\r\n    // We will register the person as participant \r\n    receive() external payable {\r\n        // It indicates that the person must have send atleast 2 ether\r\n        // to be a Participant \r\n        require(msg.value ==  1 ether , \"Please pay 0.1 ether only\");\r\n        players.push(payable(msg.sender));\r\n    }\r\n\r\n    // Returns the number of Total players\r\n    // function numofplayers() public view returns(uint){\r\n\r\n    //     return players.length;\r\n    // }\r\n\r\n\r\n    function allPlayers() public view returns(address payable[] memory){\r\n        return players;\r\n    }\r\n\r\n    // Returns the Total Balance of the Lottery\r\n    function getBalance() public view returns(uint){\r\n        \r\n        // Only manager will be able to see the Balance\r\n        require(msg.sender ==  manager , \"You are not the manager\");\r\n        return address(this).balance;\r\n    }\r\n\r\n    // Returns any random number\r\n    // function random() public view returns(uint){\r\n        // return uint(keccak256(abi.encodePacked(block.difficulty , block.timestamp , players.length)));\r\n        // return uint(keccak256(abi.encodePacked(block.prevrandao , block.timestamp , players.length)));\r\n    // }\r\n\r\n    // Selection of Lottery Winner\r\n    function pickWinner() public {\r\n\r\n        require(msg.sender == manager , \"You are not the manager\");\r\n        require(players.length >= 3 , \"Players are less than 3\");\r\n\r\n        uint random = uint(keccak256(abi.encodePacked(block.difficulty , block.timestamp , players.length)));\r\n        uint index = (random % players.length);\r\n        winner = players[index];\r\n        winner.transfer(getBalance());\r\n        players = new address payable[](0);\r\n    }\r\n}\r\n\r\n// transaction hash:    0x28f8a7b58b48ece9cb7b732f700e6466bf7610668e5f4bc0281a86db43712a67\r\n//    > Blocks: 5            Seconds: 9\r\n//    > contract address:    0x47E880d2528Af2dF0315BA754bC0EFC17d451b27\r\n//    > block number:        37816901\r\n//    > block timestamp:     1689093778\r\n//    > account:             0xCEA4dE3283ee73EFc5446Da0516f9f01dB6dD34c\r\n//    > balance:             4.193890582460677469\r\n//    > gas used:            763220 (0xba554)\r\n//    > gas price:           2.500000015 gwei\r\n//    > value sent:          0 ETH\r\n//    > total cost:          0.0019080500114483 ETH\r\n\r\n\r\n// ganache 0x7E10f651880c6ACb3Db5870081A1121069b0054E",
  "sourcePath": "F:\\Solidity Course\\Dapps\\Lottery Dapp\\web3lab\\contracts\\Lottery.sol",
  "compiler": {
    "name": "solc",
    "version": "0.8.11+commit.d7f03943.Emscripten.clang"
  },
  "schemaVersion": "3.4.14",
  "updatedAt": "2023-07-12T06:15:47.309Z",
  "networkType": "ethereum",
  "devdoc": {
    "kind": "dev",
    "methods": {},
    "version": 1
  },
  "userdoc": {
    "kind": "user",
    "methods": {},
    "version": 1
  }
}